{
  "contractName": "ZombyFactory",
  "abi": [
    {
      "inputs": [],
      "name": "zomby",
      "outputs": [
        {
          "internalType": "string",
          "name": "color",
          "type": "string"
        },
        {
          "internalType": "string",
          "name": "name",
          "type": "string"
        },
        {
          "internalType": "uint8",
          "name": "age",
          "type": "uint8"
        },
        {
          "internalType": "bytes32",
          "name": "zombyDna",
          "type": "bytes32"
        }
      ],
      "stateMutability": "view",
      "type": "function",
      "constant": true
    },
    {
      "inputs": [
        {
          "internalType": "string",
          "name": "_color",
          "type": "string"
        },
        {
          "internalType": "string",
          "name": "_name",
          "type": "string"
        },
        {
          "internalType": "uint8",
          "name": "_age",
          "type": "uint8"
        }
      ],
      "name": "makingZomby",
      "outputs": [],
      "stateMutability": "nonpayable",
      "type": "function"
    },
    {
      "inputs": [],
      "name": "zombyResult",
      "outputs": [
        {
          "components": [
            {
              "internalType": "string",
              "name": "color",
              "type": "string"
            },
            {
              "internalType": "string",
              "name": "name",
              "type": "string"
            },
            {
              "internalType": "uint8",
              "name": "age",
              "type": "uint8"
            },
            {
              "internalType": "bytes32",
              "name": "zombyDna",
              "type": "bytes32"
            }
          ],
          "internalType": "struct ZombyFactory.Zomby",
          "name": "",
          "type": "tuple"
        }
      ],
      "stateMutability": "view",
      "type": "function",
      "constant": true
    }
  ],
  "bytecode": "0x608060405234801561001057600080fd5b506109ff806100206000396000f3fe608060405234801561001057600080fd5b50600436106100415760003560e01c80634aa5b268146100465780636a0123df1461006757806379b2142614610083575b600080fd5b61004e6100a1565b60405161005e9493929190610765565b60405180910390f35b610081600480360381019061007c9190610551565b6101dc565b005b61008b61029e565b60405161009891906107b8565b60405180910390f35b60008060000180546100b2906108c1565b80601f01602080910402602001604051908101604052809291908181526020018280546100de906108c1565b801561012b5780601f106101005761010080835404028352916020019161012b565b820191906000526020600020905b81548152906001019060200180831161010e57829003601f168201915b505050505090806001018054610140906108c1565b80601f016020809104026020016040519081016040528092919081815260200182805461016c906108c1565b80156101b95780601f1061018e576101008083540402835291602001916101b9565b820191906000526020600020905b81548152906001019060200180831161019c57829003601f168201915b5050505050908060020160009054906101000a900460ff16908060030154905084565b60008383836040516020016101f393929190610730565b60405160208183030381529060405280519060200120905060405180608001604052808581526020018481526020018360ff1681526020018281525060008082015181600001908051906020019061024c929190610403565b506020820151816001019080519060200190610269929190610403565b5060408201518160020160006101000a81548160ff021916908360ff1602179055506060820151816003015590505050505050565b6102a6610489565b60006040518060800160405290816000820180546102c3906108c1565b80601f01602080910402602001604051908101604052809291908181526020018280546102ef906108c1565b801561033c5780601f106103115761010080835404028352916020019161033c565b820191906000526020600020905b81548152906001019060200180831161031f57829003601f168201915b50505050508152602001600182018054610355906108c1565b80601f0160208091040260200160405190810160405280929190818152602001828054610381906108c1565b80156103ce5780601f106103a3576101008083540402835291602001916103ce565b820191906000526020600020905b8154815290600101906020018083116103b157829003601f168201915b505050505081526020016002820160009054906101000a900460ff1660ff1660ff168152602001600382015481525050905090565b82805461040f906108c1565b90600052602060002090601f0160209004810192826104315760008555610478565b82601f1061044a57805160ff1916838001178555610478565b82800160010185558215610478579182015b8281111561047757825182559160200191906001019061045c565b5b50905061048591906104b7565b5090565b60405180608001604052806060815260200160608152602001600060ff168152602001600080191681525090565b5b808211156104d05760008160009055506001016104b8565b5090565b60006104e76104e2846107ff565b6107da565b9050828152602081018484840111156104ff57600080fd5b61050a84828561087f565b509392505050565b600082601f83011261052357600080fd5b81356105338482602086016104d4565b91505092915050565b60008135905061054b816109b2565b92915050565b60008060006060848603121561056657600080fd5b600084013567ffffffffffffffff81111561058057600080fd5b61058c86828701610512565b935050602084013567ffffffffffffffff8111156105a957600080fd5b6105b586828701610512565b92505060406105c68682870161053c565b9150509250925092565b6105d981610868565b82525050565b6105e881610868565b82525050565b60006105f982610830565b610603818561083b565b935061061381856020860161088e565b61061c81610994565b840191505092915050565b600061063282610830565b61063c818561084c565b935061064c81856020860161088e565b61065581610994565b840191505092915050565b600061066b82610830565b610675818561085d565b935061068581856020860161088e565b80840191505092915050565b600060808301600083015184820360008601526106ae82826105ee565b915050602083015184820360208601526106c882826105ee565b91505060408301516106dd60408601826106fb565b5060608301516106f060608601826105d0565b508091505092915050565b61070481610872565b82525050565b61071381610872565b82525050565b61072a61072582610872565b610924565b82525050565b600061073c8286610660565b91506107488285610660565b91506107548284610719565b600182019150819050949350505050565b6000608082019050818103600083015261077f8187610627565b905081810360208301526107938186610627565b90506107a2604083018561070a565b6107af60608301846105df565b95945050505050565b600060208201905081810360008301526107d28184610691565b905092915050565b60006107e46107f5565b90506107f082826108f3565b919050565b6000604051905090565b600067ffffffffffffffff82111561081a57610819610965565b5b61082382610994565b9050602081019050919050565b600081519050919050565b600082825260208201905092915050565b600082825260208201905092915050565b600081905092915050565b6000819050919050565b600060ff82169050919050565b82818337600083830152505050565b60005b838110156108ac578082015181840152602081019050610891565b838111156108bb576000848401525b50505050565b600060028204905060018216806108d957607f821691505b602082108114156108ed576108ec610936565b5b50919050565b6108fc82610994565b810181811067ffffffffffffffff8211171561091b5761091a610965565b5b80604052505050565b600061092f826109a5565b9050919050565b7f4e487b7100000000000000000000000000000000000000000000000000000000600052602260045260246000fd5b7f4e487b7100000000000000000000000000000000000000000000000000000000600052604160045260246000fd5b6000601f19601f8301169050919050565b60008160f81b9050919050565b6109bb81610872565b81146109c657600080fd5b5056fea26469706673582212205ed2b7250fb46cd5d267a32d4cdc744e10d8cc62057748992c420221722d38ae64736f6c63430008040033",
  "immutableReferences": {},
  "source": "// SPDX-License-Identifier: MIT\r\npragma solidity ^0.8.4;\r\n\r\ncontract ZombyFactory{\r\n    \r\n    struct Zomby{\r\n        string color;\r\n        string name;\r\n        uint8 age;\r\n        bytes32 zombyDna;\r\n    }\r\n    Zomby public zomby;\r\n\r\n    function makingZomby(string memory _color, string memory _name, uint8 _age ) public{\r\n        bytes32 Dna = keccak256(abi.encodePacked(_color,_name,_age));\r\n        zomby= Zomby(_color,_name,_age, Dna);\r\n    }\r\n\r\n    function zombyResult() public view returns(Zomby memory){\r\n        return zomby;\r\n    }\r\n\r\n}",
  "sourcePath": "D:/Ethereum/zombie-factory/src/contracts/ZombyFactory.sol",
  "compiler": {
    "name": "solc",
    "version": "0.8.4+commit.c7e474f2.Emscripten.clang"
  },
  "schemaVersion": "3.4.1",
  "updatedAt": "2021-07-09T07:06:53.905Z",
  "networkType": "ethereum",
  "devdoc": {
    "kind": "dev",
    "methods": {},
    "version": 1
  },
  "userdoc": {
    "kind": "user",
    "methods": {},
    "version": 1
  }
}